:02000004080AE8
:1000000000000A08E8150A080000060006000501BD
:080010000402E50C00000000F1
:04001800C4100A08FE
:10001C0009480A4908B5884205D0094A824202D0EB
:10002C00121A00F08DFF0748074A0021121A00F03F
:10003C0095FF064808BD00BF0000002054150A08B3
:10004C006C0000206C000020B9010020B9010020D8
:10005C0070B500F0C1FC0025054E064CA41BA4088D
:10006C00AC4200D170BD56F8043B98470135F7E718
:10007C0028150A0848150A0800F014B808B500F04D
:10008C009BF8BDE8084000F05FBC00F0C9B900F077
:10009C00CFB90078B0FA80F04009704701230370A3
:1000AC007047000010B590B068463C4900F03CFA2F
:1000BC003B4904A800F038FA3A4908A800F034FA91
:1000CC0000F0F0FB03680022E3219B69984700F0E5
:1000DC00E9FB0368002215219B69984700F0E2FBBD
:1000EC0003681B6A98474FF4967000F0C3FA00F04F
:1000FC00D9FB2D4900F088FA00F0D4FB03680022EC
:10010C0028215B69984740F6C41000F0B3FA00F060
:10011C00C9FB03680022E2219B69984700F0C2FBEF
:10012C00036800221C219B69984700F0BBFB036805
:10013C001B6A98474FF4FA7000F09CFA00F0B2FB7F
:10014C001A4904460CA800F0EFF969460CA800F017
:10015C0015FA174900F01EFA04A900F00FFA154918
:10016C0000F018FA0168204600F04EFA0CA800F0D6
:10017C0091F9C82000F07EFA00F094FB036800228D
:10018C0028215B69984708A800F084F904A800F0BE
:10019C0081F9684600F07EF910B010BDD8100A083D
:1001AC000B110A0831110A08A5110A08D5110A0801
:1001BC004A120A0857120A08704708B500F072FB79
:1001CC00BDE8084000F0A8BA08B5024B1B685B6894
:1001DC00019308BD9C01060808B5024B1B685B69BE
:1001EC00019308BD9C01060808B5024B1B685B6AAD
:1001FC00019308BDC401060808B5024B1B689B6A35
:10020C00019308BDC401060808B5024B1B68DB6AE4
:10021C00019308BDC401060808B5024B1B681B6B93
:10022C00019308BDC401060808B5024B1B685B6B43
:10023C00019308BDC401060808B5024B1B681B6C72
:10024C00019308BDC401060808B5024B1B681B6E60
:10025C00019308BDC401060808B5024B1B681B6856
:10026C00019308BDD801060808B5024B1B681B6931
:10027C00019308BDD801060808B5024B1B685B69E1
:10028C00019308BDD801060808B5024B1B689B6991
:10029C00019308BDD801060808B5024B1B68DB6941
:1002AC00019308BDD801060808B5024B1B681B6AF0
:1002BC00019308BDD801060808B5024B1B681B6BDF
:1002CC00019308BDD801060808B5024B1B685B6B8F
:1002DC00019308BDD801060808B5024B1B689B6B3F
:1002EC00019308BDD801060808B5024B1B681B6EAC
:1002FC00019308BDD801060808B5024B1B689B6C1E
:10030C00019308BDC001060808B5024B1B685B6869
:10031C00019308BDA401060808B5024B1B685B6974
:10032C00019308BDA401060808B5034B1B68D3F85C
:10033C009030019308BD0000A401060808B5034BDA
:10034C001B68D3F89C30019308BD0000A40106087B
:10035C0008B5024B1B685B68019308BDC801060811
:10036C0008B5024B1B689B68019308BDC8010608C1
:10037C0008B5024B1B68DB68019308BDC801060871
:10038C0008B5024B1B681B69019308BDC801060820
:10039C0008B5024B1B685B69019308BDC8010608D0
:1003AC0008B5024B1B689B69019308BDC801060880
:1003BC0008B5024B1B68DB69019308BDC801060830
:1003CC0008B5024B1B681B6A019308BDC8010608DF
:1003DC0008B5024B1B681B6B019308BDC8010608CE
:1003EC0008B5024B1B685B6B019308BDC80106087E
:1003FC0008B5024B1B681B6C019308BDC8010608AD
:10040C0008B5024B1B685B6C019308BDC80106085C
:10041C0008B5024B1B68DB6B019308BDCC010608C9
:10042C0008B5024B1B681B68019308BDA0010608A8
:10043C0008B5024B1B685B68019308BDA001060858
:10044C0008B5024B1B689B68019308BDA001060808
:10045C0008B5024B1B681B6C019308BDA001060874
:10046C0008B5024B1B685B6C019308BDA001060824
:10047C0002220020044B1A60044B054AC3E9000019
:10048C009A60FFF741BF00BF780000206C0000208D
:10049C000000FFFF10B504460068FFF7C9FF2046B7
:1004AC0010BD10B50446006808B1FFF7C1FF00236A
:1004BC00C4E90133236010BD38B504460D4600680D
:1004CC000131FFF7BDFF10B1C4E90005012038BDB3
:1004DC0010B50368044623B143688B4201D3012055
:1004EC0010BD2046FFF7E8FF0028F9D0A368002BC9
:1004FC00F5D122681370F2E770B50E46114604462A
:10050C001546FFF7E5FF20B92046FFF7CAFF204646
:10051C0070BD2A4631462068A56000F011FD00210F
:10052C002268A368D154F2E738B5002304460D467F
:10053C00C0E900338360037339B1084600F04CFD09
:10054C00294602462046FFF7D7FF204638BD70B536
:10055C0005460E4609B9002070BD6AB18468144482
:10056C002146FFF7B5FF0028F5D02868AB68314667
:10057C00184400F029FDAC600120EDE710B58A6845
:10058C0009680446FFF7E3FF10B92046FFF789FF1F
:10059C00204610BD38B504460D4621B92046FFF75C
:1005AC0080FF204638BD084600F016FD294602465D
:1005BC002046FFF7CCFF0028F0D0F2E7F8B506464E
:1005CC000D4600248F18BD420CD0336830469B6812
:1005DC0015F8011B9847031E01DB1C44F3E7002CA4
:1005EC0008BF1C462046F8BD70B505460C460846AB
:1005FC0049B100F0F1FC2B68024621462846BDE8C3
:10060C007040DB68184770BD08B5FFF7EDFF08BDFB
:10061C0003689B6818470023012A98BF0A2230B54B
:10062C008BB00C468DF8243009A92546B4FBF2F4A6
:10063C0004FB1253DBB2092B94BF30333733DBB2DC
:10064C00AA4201F8013DF0D9FFF7CEFF0BB030BD47
:10065C00014B024A1A6070477C000020D6120A082F
:10066C00024B1A68024B1A60704700BF0000002052
:10067C00800000200021FFF74FBE00000022014B3C
:10068C009A60704784000020F8B5036804469B69A3
:10069C000E4617469847054623683A46314620468B
:1006AC00DB699847E8B2F8BD03681B6918477047C7
:1006BC00704710B504461421FFF7E9FC204610BD25
:1006CC000B0610B40ED4094A535C5256002A4EF253
:1006DC000202A8BF002213F07F0103D0036810BCF4
:1006EC001B691847002010BC704700BF24130A0870
:1006FC0000210346074A10B5416043F8082B81607E
:10070C00596019720223044603720846FFF7D4FDA0
:10071C00204610BD00130A0800210846FFF7D4BD7F
:10072C0038B50446FFF758FD054600210846FFF78B
:10073C00DBFD034640B10120FFF79CFFFFF74CFDAA
:10074C00431B312BF1D938BD04F108010922FFF705
:10075C00C3FDFFF741FD044600210846FFF7C4FD29
:10076C000028F0D00120FFF785FFFFF735FD031BB4
:10077C00312BF1D9E7E710B5A1F1E004A3B2072BB7
:10078C000AD80123417A03FA04F40C4344728ABB5D
:10079C00FFF7C6FF012010BDDD2901D90020FAE7C3
:1007AC00002A34D0002302F5FF541F34A4B2FE2CCF
:1007BC0022D8437A1A4342720029E9D00123C27A23
:1007CC008A421BD0027B914218D0427B914215D0B9
:1007DC00827B914212D0C27B91420FD0027C91421B
:1007EC000CD0002300F10B0212F8014B4CB903445E
:1007FC00D972CDE70021D6E70029E0D1002BCDD06E
:10080C00C6E70133062BEFD101234360C6E700296D
:10081C00C4D01346D3E770B5A1F1E004A3B2072B03
:10082C000BD80123417A03FA04F421EA040444723C
:10083C002ABBFFF775FF012070BDDD2901D900200F
:10084C00FAE71AB3002302F5FF541F34A4B2FE2CAE
:10085C0017D8437A23EA020242720029E9D0012315
:10086C00002500F10B0200F1110412F8016B8E420D
:10087C0004BF012302F8015CA242F6D103E000217F
:10088C00E1E70029ECD1002BD9D0D2E70029D6D052
:10089C001346E5E70022C272C26002744272FFF78F
:1008AC003FBF000010B50A4C2378BFF35B8FDB070A
:1008BC000CD42046FFF7EDFB40B10648FFF718FFBC
:1008CC002046FFF7EBFB044800F034FB014810BD59
:1008DC009400002098000020BB060A08014B186009
:1008EC00704700BF0400002008B5134B43B100F063
:1008FC0063F903681B699847002801DDAFF300809A
:10090C000E4B43B100F0E2FA03681B6998470028CC
:10091C0001DDAFF300800A4B0BB1AFF30080094B44
:10092C0043B100F075F903681B699847002801DD95
:10093C00AFF3008008BD00BF000000000000000005
:10094C00000000000000000008B5FFF7CDFFFFF726
:10095C0043FC014B186008BD0C0100200548064AF9
:10096C0008B5121A054900F0EBFA054B054A1A6056
:10097C0008BD00BF004002400440024050150A0868
:10098C00004002401E1C279A002307B51A466FF040
:10099C0077010093FFF7D2FC03B05DF804FB000075
:1009AC0007B543880A2B08D0502B0BD1094B1B6879
:1009BC004BB103B05DF804EB1847FFF7E5FF03B04C
:1009CC005DF804FB00231A466FF077010093FFF7E4
:1009DC00B5FCF4E7B0000020002110B51148FFF77A
:1009EC003FFD114B1A68114B9A420CBF0122002299
:1009FC000F4B1A7001D0FFF7B1FFFFF7E5FB044670
:100A0C0000F0B4FA0B4B13B12046AFF30080002179
:100A1C000848FFF7FDFCBDE8104000210648FFF731
:100A2C0083BC00BFE9080A08004002401E1C279A3C
:100A3C00AC00002000000000AD090A087047F8B5B2
:100A4C000E46002400F10807051D17F8011D0A22A7
:100A5C003046FFF7E0FDAF42044401D12046F8BD1B
:100A6C00002CF2D02E213046FFF7D2FD0444ECE7E7
:100A7C0010B504461821FFF70AFB204610BD0000F4
:100A8C0010B50446044B1122002140F8043B00F041
:100A9C0065FA204610BD00BFAC130A080346074A8E
:100AAC0010B543F8042B01F1100251F8044B91429C
:100ABC0043F8044BF9D10A781A7010BDAC130A082C
:100ACC00024AC0E90021042202757047AC130A08DF
:100ADC0010B59DF8084044EA0324042344EA024478
:100AEC0044EA01644460037510BD000013B5044C66
:100AFC0004609DF810400094FFF7EAFF02B010BDAF
:100B0C00AC130A08417470477047704708B5002150
:100B1C00007CFFF7B9FB40EAE07008BD08B5012185
:100B2C00007CFFF7B1FB40EAE07008BD08B5007C23
:100B3C00FFF7A2FB20EAE07008BD08B5007CFFF7C8
:100B4C0093FB20EAE07008BD38B50446007C0D46E6
:100B5C00FFF792FB002801DC607C28B12946207C41
:100B6C00FFF79AFB20EAE07038BD007CFFF79CBBD6
:100B7C0010B504461421FFF78AFA204610BD7047C1
:100B8C0010B54FF47A73044608460021C4E90113EA
:100B9C00044B20742360012311466374FFF75CFB44
:100BAC00204610BDC0130A0810B5044614220021BB
:100BBC0000F0D4F9204610BD30B50E4D87B001A819
:100BCC00FFF7F2FF2978BFF35B8F11F001040ED110
:100BDC002846FFF75EFA50B1214601AA0648FFF7F6
:100BEC00CFFF2846FFF75AFA044800F0A3F9024851
:100BFC0007B030BDB4000020BC000020150B0A0863
:100C0C0010B504461422002100F0A8F9204610BDAE
:100C1C0010B50E4C86B001A8FFF7F2FF2378BFF396
:100C2C005B8FDB070ED42046FFF733FA50B101215E
:100C3C0001AA0748FFF7A4FF2046FFF72FFA054843
:100C4C0000F078F9024806B010BD00BFB8000020D3
:100C5C00D00000208B0B0A0870474174704708B510
:100C6C00007CFFF7E9FA20EAE07008BD08B5007CCB
:100C7C00FFF7C2FA20EAE07008BD08B5007CFFF768
:100C8C00CBFA40EAE07008BD08B5007CFFF7BCFA6F
:100C9C0040EAE07008BD007CFFF7C6BA70B5467C30
:100CAC0004460D462EB12946207CBDE87040FFF766
:100CBC009BBA007CFFF7C0FA0028F4DC304670BD0C
:100CCC0010B504461421FFF7E2F9204610BD0000D0
:100CDC0010B54FF47A730446084611460022C4E955
:100CEC000123044B2074236001236374FFF7ACFAD7
:100CFC00204610BDF0130A08002240681146FFF789
:100D0C003FBBF0B5154689B011220E4604460021B2
:100D1C0003A800F023F9284600F05EF9002781B201
:100D2C0073682846009703AAFFF7E6FA30B13946F4
:100D3C002046FFF7C5FE204609B0F0BD204603A9AA
:100D4C00FFF7ACFEF7E7002240681146FFF738BB0F
:100D5C00002240681146FFF743BB00224068FFF7B2
:100D6C0037BB0022406881F00101FFF721BB002353
:100D7C0040681A461946FFF713BB002340681A4611
:100D8C001946FFF705BB002240681146FFF7E8BA89
:100D9C00002202214068FFF7EBBA002340681A4694
:100DAC00FFF7D6BA0422024B5A60024A1A60704707
:100DBC00E400002020140A08002340681A46FFF7BC
:100DCC00C7BA002202214068FFF7D2BA002240685D
:100DDC001146FFF7C5BA002240681146FFF7D0BA9A
:100DEC00002340681A461946FFF7D2BA0023406820
:100DFC001A461946FFF7D4BA00214068FFF7F8BA33
:100E0C0000214068FFF7FCBA0022406881F0010124
:100E1C00FFF7CEBA00224068FFF7DABA002240682A
:100E2C001146FFF7DDBA002240681146FFF7C8BA39
:100E3C0070B515468EB0044608A8FFF721FE1122A6
:100E4C00002103A800F08AF80026284600F0C4F818
:100E5C000A4B009681B25B68284603AAFFF74CFA4E
:100E6C0030B131462046FFF72BFE20460EB070BD48
:100E7C00204603A9FFF712FEF7E700BFE4000020AD
:100E8C00024B034A1A6000225A607047EC000020A3
:100E9C005C140A087047000070B5142504462A46F5
:100EAC00002100F05BF825808025074E284631464E
:100EBC002581258200F03CF831466060284600F020
:100ECC0037F8E060204670BD90140A0830B50E4D1E
:100EDC0087B02978BFF35B8F11F0010411D128463C
:100EEC00FFF7D7F868B101A8FFF7D6FF214601AA92
:100EFC000648FFF7EDFE2846FFF7D0F8044800F04F
:100F0C0019F8024807B030BDF4000020F8000020AA
:100F1C00A10E0A08002307B51A4619460093034888
:100F2C00FFF7E4FD03B05DF804FB00BF10010020E7
:100F3C00FFF7ABB8002301461A46184600F054B828
:100F4C000A44914200F1FF3300D1704710B511F8FB
:100F5C00014B914203F8014FF9D110BD03460244F5
:100F6C00934200D1704703F8011BF9E738B5104BD9
:100F7C0004461D68AB6BB3B91820FFF751FA024653
:100F8C00A86320B942210B4B0B48FFF761FA0B49C0
:100F9C000B4BC0E900130B4B002183600B238381A7
:100FAC000120C2E904010022AB6B1C615A6138BDFF
:100FBC000400002091140A08A8140A080E33CDABC3
:100FCC0034126DE6ECDE0500034611F8012B03F834
:100FDC00012B002AF9D17047034613F8012B002A84
:100FEC00FBD1181A013870472DE9F843DFF8AC80B3
:100FFC000646D8F800001F460D46914600F058F8FA
:10100C00274B1C6834B9274C1C60274B13B11B6849
:10101C00C4F8883063681F2B07DDD8F8000000F097
:10102C0049F84FF0FF30BDE8F8835EB3D4F8880080
:10103C0088B91E4B23B9D8F8000000F03AF8F0E755
:10104C004FF48470FFF7ECF90028F4D00023C0E9CA
:10105C004033C4F8880001226368022E40F82390C4
:10106C0002FA03F200EB8301D0F8003143EA0203E9
:10107C00C0F80031C1F8807002BFD0F804311343BE
:10108C00C0F804316368D8F800005A1C023362605F
:10109C0044F8235000F00EF80020C4E7680000204C
:1010AC00B401002028010020000000002D040A08D3
:1010BC0070477047704700001D000A085D000A0861
:1010CC0085000A0889000A08000000006874747022
:1010DC00733A2F2F7777772E6D756E63686B696E09
:1010EC002E636F6D2F6D656469612F636174616C24
:1010FC006F672F70726F647563742F332F312F33BA
:10110C00313030315F77686974655F686F745F7315
:10111C0061666574795F626174685F6475636B792D
:10112C002E6A70670068747470733A2F2F69613679
:10113C0030303230392E75732E6172636869766582
:10114C002E6F72672F33322F6974656D732F576151
:10115C00676E6572546865526964654F665468655C
:10116C0056616C6B79726965732F5761676E657226
:10117C00546865526964654F6654686556616C6B5A
:10118C0079726965737777772E6B656570766964AC
:10119C002E636F6D2E6D703300706F776572736890
:1011AC00656C6C2053746172742D50726F6365732F
:1011BC007320706F7765727368656C6C202D566543
:1011CC0072622072756E4173005B4E65742E5365AE
:1011DC007276696365506F696E744D616E61676597
:1011EC00725D3A3A536563757269747950726F74B3
:1011FC006F636F6C203D2027746C7331322C20741C
:10120C006C7331312C20746C73273B2024646F7702
:10121C006E203D204E65772D4F626A6563742053B6
:10122C00797374656D2E4E65742E576562436C69C7
:10123C00656E743B202475726C203D202700273B83
:10124C00202466696C65203D202700273B20246400
:10125C006F776E2E446F776E6C6F616446696C6548
:10126C00282475726C2C2466696C65293B202465D6
:10127C00786563203D204E65772D4F626A656374F7
:10128C00202D636F6D207368656C6C2E6170706CB3
:10129C0069636174696F6E3B2024657865632E7396
:1012AC0068656C6C65786563757465282450535358
:1012BC006372697074526F6F74202B202466696C92
:1012CC0065293B20657869743B0061707000255975
:1012DC002D256D2D25645425483A254D3A25532549
:1012EC007A0061736374696D650000000000000092
:1012FC0000000000BD060A08BF060A08CD060A0851
:10130C00C9050A0895060A08B5060A0883070A08DB
:10131C0023080A08A1080A080000000000000000C9
:10132C002A2B280000000000000000000000000034
:10133C0000000029000000002C9EB4A0A1A2A4343F
:10134C00A6A7A5AE362D3738271E1F202122232411
:10135C002526B333B62EB7B89F8485868788898AAD
:10136C008B8C8D8E8F909192939495969798999A49
:10137C009B9C9D2F3130A3AD350405060708090A47
:10138C000B0C0D0E0F101112131415161718191A29
:10139C001B1C1DAFB1B0B54C0000000000000000DC
:1013AC004B0A0A08490A0A087D0A0A0800000000CC
:1013BC0000000000170B0A087D0B0A08550B0A08E1
:1013CC00C9050A08470B0A08190B0A08290B0A0851
:1013DC00770B0A08390B0A08110B0A0800000000E9
:1013EC0000000000650C0A08CD0C0A08A90C0A08BC
:1013FC00C9050A08790C0A08950C0A08870C0A0812
:10140C00A30C0A08670C0A086B0C0A080000000001
:10141C0000000000A70D0A089D0D0A08930D0A088C
:10142C00050D0A08870D0A087B0D0A08050E0A0827
:10143C000D0E0A086F0D0A08670D0A085D0D0A08E3
:10144C00530D0A080F0D0A080000000000000000F0
:10145C00C50D0A08CF0D0A08D90D0A08E30D0A08B4
:10146C00ED0D0A08F90D0A08050E0A080D0E0A08FA
:10147C00150E0A08210E0A08290E0A08330E0A084E
:10148C003D0E0A08005245454E54206D616C6C6F40
:10149C006320737563636565646564002F6D6E749A
:1014AC002F776F726B73706163652F776F726B73CD
:1014BC00706163652F4743432D31302D7069706522
:1014CC006C696E652F6A656E6B696E732D4743434D
:1014DC002D31302D706970656C696E652D34385FF7
:1014EC0032303230313132345F313630363138309F
:1014FC003634312F7372632F6E65776C69622F6E81
:10150C0065776C69622F6C6962632F7374646C69A4
:10151C00622F72616E642E6300000000C7010A081E
:10152C007D040A085D060A086D060A0889060A0881
:10153C00B10D0A088D0E0A08210F0A0800000000E0
:04154C00000000009B
:041550000000000097
:10155400EE120A080800002000000000000000004D
:101564000000000000000000000000000000000077
:101574000000000000000000000000000000000067
:101584000000000000000000000000000000000057
:101594000000000000000000000000000000000047
:1015A4000000000000000000000000000000000037
:0C15B4000000000000000000B801002052
:1015C000FFFFFFFF00000102030405060708090AE8
:1015D0000B0C0D0E0F101112131415161718191AE3
:0815E0001B1C1D1E1F2028002A
:0415E80078563412EB
:04000005080A001CC9
:00000001FF
